{
  "_format": "hh-sol-artifact-1",
  "contractName": "Campaign",
  "sourceName": "contracts/Campaign.sol",
  "abi": [
    {
      "inputs": [
        {
          "internalType": "uint256",
          "name": "minimum",
          "type": "uint256"
        },
        {
          "internalType": "address",
          "name": "creator",
          "type": "address"
        }
      ],
      "stateMutability": "nonpayable",
      "type": "constructor"
    },
    {
      "inputs": [
        {
          "internalType": "uint256",
          "name": "index",
          "type": "uint256"
        }
      ],
      "name": "approveRequest",
      "outputs": [],
      "stateMutability": "nonpayable",
      "type": "function"
    },
    {
      "inputs": [
        {
          "internalType": "address",
          "name": "",
          "type": "address"
        }
      ],
      "name": "approvers",
      "outputs": [
        {
          "internalType": "bool",
          "name": "",
          "type": "bool"
        }
      ],
      "stateMutability": "view",
      "type": "function"
    },
    {
      "inputs": [],
      "name": "approversCount",
      "outputs": [
        {
          "internalType": "uint256",
          "name": "",
          "type": "uint256"
        }
      ],
      "stateMutability": "view",
      "type": "function"
    },
    {
      "inputs": [],
      "name": "contribute",
      "outputs": [],
      "stateMutability": "payable",
      "type": "function"
    },
    {
      "inputs": [
        {
          "internalType": "string",
          "name": "description",
          "type": "string"
        },
        {
          "internalType": "uint256",
          "name": "value",
          "type": "uint256"
        },
        {
          "internalType": "address payable",
          "name": "recipient",
          "type": "address"
        }
      ],
      "name": "createRequest",
      "outputs": [],
      "stateMutability": "nonpayable",
      "type": "function"
    },
    {
      "inputs": [
        {
          "internalType": "uint256",
          "name": "index",
          "type": "uint256"
        }
      ],
      "name": "finalizeRequest",
      "outputs": [],
      "stateMutability": "nonpayable",
      "type": "function"
    },
    {
      "inputs": [],
      "name": "manager",
      "outputs": [
        {
          "internalType": "address",
          "name": "",
          "type": "address"
        }
      ],
      "stateMutability": "view",
      "type": "function"
    },
    {
      "inputs": [],
      "name": "minimumContribution",
      "outputs": [
        {
          "internalType": "uint256",
          "name": "",
          "type": "uint256"
        }
      ],
      "stateMutability": "view",
      "type": "function"
    }
  ],
  "bytecode": "0x608060405234801561001057600080fd5b5060405162000c1938038062000c198339818101604052810190610034919061011b565b806000806101000a81548173ffffffffffffffffffffffffffffffffffffffff021916908373ffffffffffffffffffffffffffffffffffffffff16021790555081600181905550505061015b565b600080fd5b6000819050919050565b61009a81610087565b81146100a557600080fd5b50565b6000815190506100b781610091565b92915050565b600073ffffffffffffffffffffffffffffffffffffffff82169050919050565b60006100e8826100bd565b9050919050565b6100f8816100dd565b811461010357600080fd5b50565b600081519050610115816100ef565b92915050565b6000806040838503121561013257610131610082565b5b6000610140858286016100a8565b925050602061015185828601610106565b9150509250929050565b610aae806200016b6000396000f3fe60806040526004361061007b5760003560e01c80638a9cfd551161004e5780638a9cfd551461013c578063937e09b114610165578063d7bb99ba14610190578063d7d1bbdb1461019a5761007b565b806303441006146100805780630a144391146100a9578063481c6a75146100e657806382fde09314610111575b600080fd5b34801561008c57600080fd5b506100a760048036038101906100a291906106e6565b6101c3565b005b3480156100b557600080fd5b506100d060048036038101906100cb9190610771565b6102fb565b6040516100dd91906107b9565b60405180910390f35b3480156100f257600080fd5b506100fb61031b565b60405161010891906107e3565b60405180910390f35b34801561011d57600080fd5b5061012661033f565b604051610133919061080d565b60405180910390f35b34801561014857600080fd5b50610163600480360381019061015e91906108cb565b610345565b005b34801561017157600080fd5b5061017a61043f565b604051610187919061080d565b60405180910390f35b610198610445565b005b3480156101a657600080fd5b506101c160048036038101906101bc91906106e6565b6104c5565b005b60008054906101000a900473ffffffffffffffffffffffffffffffffffffffff1673ffffffffffffffffffffffffffffffffffffffff163373ffffffffffffffffffffffffffffffffffffffff161461021b57600080fd5b600060056000838152602001908152602001600020905060028054610240919061099d565b81600301541161024f57600080fd5b8060020160149054906101000a900460ff161561026b57600080fd5b8060020160009054906101000a900473ffffffffffffffffffffffffffffffffffffffff1673ffffffffffffffffffffffffffffffffffffffff166108fc82600101549081150290604051600060405180830381858888f193505050501580156102d9573d6000803e3d6000fd5b5060018160020160146101000a81548160ff0219169083151502179055505050565b60046020528060005260406000206000915054906101000a900460ff1681565b60008054906101000a900473ffffffffffffffffffffffffffffffffffffffff1681565b60025481565b60008054906101000a900473ffffffffffffffffffffffffffffffffffffffff1673ffffffffffffffffffffffffffffffffffffffff163373ffffffffffffffffffffffffffffffffffffffff161461039d57600080fd5b60006005600060035481526020019081526020016000209050600360008154809291906103c9906109ce565b919050555084848260000191906103e1929190610603565b50828160010181905550818160020160006101000a81548173ffffffffffffffffffffffffffffffffffffffff021916908373ffffffffffffffffffffffffffffffffffffffff160217905550600081600301819055505050505050565b60015481565b600154341161045357600080fd5b6001600460003373ffffffffffffffffffffffffffffffffffffffff1673ffffffffffffffffffffffffffffffffffffffff16815260200190815260200160002060006101000a81548160ff021916908315150217905550600260008154809291906104be906109ce565b9190505550565b6000600560008381526020019081526020016000209050600460003373ffffffffffffffffffffffffffffffffffffffff1673ffffffffffffffffffffffffffffffffffffffff16815260200190815260200160002060009054906101000a900460ff1661053257600080fd5b8060040160003373ffffffffffffffffffffffffffffffffffffffff1673ffffffffffffffffffffffffffffffffffffffff16815260200190815260200160002060009054906101000a900460ff161561058b57600080fd5b60018160040160003373ffffffffffffffffffffffffffffffffffffffff1673ffffffffffffffffffffffffffffffffffffffff16815260200190815260200160002060006101000a81548160ff0219169083151502179055508060030160008154809291906105fa906109ce565b91905055505050565b82805461060f90610a46565b90600052602060002090601f0160209004810192826106315760008555610678565b82601f1061064a57803560ff1916838001178555610678565b82800160010185558215610678579182015b8281111561067757823582559160200191906001019061065c565b5b5090506106859190610689565b5090565b5b808211156106a257600081600090555060010161068a565b5090565b600080fd5b600080fd5b6000819050919050565b6106c3816106b0565b81146106ce57600080fd5b50565b6000813590506106e0816106ba565b92915050565b6000602082840312156106fc576106fb6106a6565b5b600061070a848285016106d1565b91505092915050565b600073ffffffffffffffffffffffffffffffffffffffff82169050919050565b600061073e82610713565b9050919050565b61074e81610733565b811461075957600080fd5b50565b60008135905061076b81610745565b92915050565b600060208284031215610787576107866106a6565b5b60006107958482850161075c565b91505092915050565b60008115159050919050565b6107b38161079e565b82525050565b60006020820190506107ce60008301846107aa565b92915050565b6107dd81610733565b82525050565b60006020820190506107f860008301846107d4565b92915050565b610807816106b0565b82525050565b600060208201905061082260008301846107fe565b92915050565b600080fd5b600080fd5b600080fd5b60008083601f84011261084d5761084c610828565b5b8235905067ffffffffffffffff81111561086a5761086961082d565b5b60208301915083600182028301111561088657610885610832565b5b9250929050565b600061089882610713565b9050919050565b6108a88161088d565b81146108b357600080fd5b50565b6000813590506108c58161089f565b92915050565b600080600080606085870312156108e5576108e46106a6565b5b600085013567ffffffffffffffff811115610903576109026106ab565b5b61090f87828801610837565b94509450506020610922878288016106d1565b9250506040610933878288016108b6565b91505092959194509250565b7f4e487b7100000000000000000000000000000000000000000000000000000000600052601260045260246000fd5b7f4e487b7100000000000000000000000000000000000000000000000000000000600052601160045260246000fd5b60006109a8826106b0565b91506109b3836106b0565b9250826109c3576109c261093f565b5b828204905092915050565b60006109d9826106b0565b91507fffffffffffffffffffffffffffffffffffffffffffffffffffffffffffffffff821415610a0c57610a0b61096e565b5b600182019050919050565b7f4e487b7100000000000000000000000000000000000000000000000000000000600052602260045260246000fd5b60006002820490506001821680610a5e57607f821691505b60208210811415610a7257610a71610a17565b5b5091905056fea26469706673582212207f99b3a2ddc8354463bd9087ef99b7c3f86dd5c13cb558a642dddb08b49683bb64736f6c63430008090033",
  "linkReferences": {},
  "deployedLinkReferences": {}
}